:10000000F8FF0220990100006D77000025770000BD
:100010002577000025770000257700002577000070
:100020002577000025770000257700006D77000018
:100030006D77000025770000098E00000D8F00000D
:100040006D7700006D7700006D7700006D77000020
:100050006D7700006D7700006D7700006D77000010
:100060006D7700006D7700006D7700006D77000000
:100070006D7700006D7700006D7700006D770000F0
:100080006D7700006D7700006D7700006D770000E0
:100090006D7700006D7700006D7700006D770000D0
:1000A0006D7700006D7700006D7700006D770000C0
:1000B0006D7700006D7700006D77000035900000CF
:1000C0006D770000619100006D7700008D92000057
:1000D0006D770000859300006D7700006D7700005C
:1000E0006D7700006D7700006D7700006D77000080
:1000F0006D7700006D7700006D7700006D77000070
:10010000717500008575000099750000AD750000DF
:100110006D770000217D00006D7700006D77000095
:100120006D7700006D7700006D7700006D7700003F
:100130006D7700006D7700006D7700006D7700002F
:100140006D7700006D7700007D9400006D770000F2
:10015000759500006D7700006D7700006D770000E9
:100160006D7700006D7700006D770000F57400007A
:10017000017500000575000011750000157500007F
:10018000197500006D7700006D7700006D77000035
:100190006D7700006D770000584B4CF2205210B57F
:1001A0001A804DF628121A8000BF00BF07F0E2FA4D
:1001B000534B4FF030621A60524A9A60524ADA60EA
:1001C000524B4FF470021A60514A136813F4807353
:1001D00004D150490B604FF4A85313604E4B1A786A
:1001E000110703D51A7842F008021A704B4B4C499C
:1001F0002A221A704B4A4C4B8B4204D252F8040FFD
:1002000043F8040BF8E7494B494900228B4202D2DC
:1002100043F8042BFAE74749474A002352F82300E2
:1002200041F823000133662BF8D1444B444A802126
:1002300003F8011B9342FBD1424B3E4A1A60424BEA
:100240008A221A70A3F5805324225A70A0221A70B1
:100250009A799207FCD59A79D406FCD43B4A9379D3
:1002600003F00C03082B394BF9D103221A714622F3
:100270005A719A799006FCD5344A9179334B4906E4
:10028000FBD5334A4FF08271116009215160202261
:100290001A709A7902F00C020C2AFAD12D4B2E4AD0
:1002A0001A602E4B2E4A1A6000225A60072243F829
:1002B000042C2C4AC3F80C2D62B607F0C3FB154B77
:1002C0001B68DA0705D5284807F056FB274B284A54
:1002D0001A60284B1B785B0609D5244C244B2268F6
:1002E0009A4204D1204807F047FB0023236009F01D
:1002F00017FE07F045FA07F073F9FEE70E200540F8
:1003000030800440823F04000100002B88ED00E0B3
:1003100010D0034014D0034002D0074000E0074053
:10032000DC12FF1FA0B40000F806FF1FE012FF1F41
:100330000025FF1F0002FF1F0000000000E400E096
:1003400056E400E008ED00E00050064000400640A2
:100350004480044004800440C010050014E000E024
:10036000BFD4010000002020AEC0D05E1CE00340DE
:10037000A5C3945A00F00740FFFFFFFFFFFFFFFFF8
:10038000FFFFFFFFFFFFFFFFFFFFFFFFFFFFFFFF7D
:10039000FFFFFFFFFFFFFFFFFFFFFFFFFFFFFFFF6D
:1003A000FFFFFFFFFFFFFFFFFFFFFFFFFFFFFFFF5D
:1003B000FFFFFFFFFFFFFFFFFFFFFFFFFFFFFFFF4D
:1003C000FFFFFFFFFFFFFFFFFFFFFFFFFFFFFFFF3D
:1003D000FFFFFFFFFFFFFFFFFFFFFFFFFFFFFFFF2D
:1003E000FFFFFFFFFFFFFFFFFFFFFFFFFFFFFFFF1D
:1003F000FFFFFFFFFFFFFFFFFFFFFFFFFFFFFFFF0D
:10040000FFFFFFFFFFFFFFFFFFFFFFFFDEF9FFFF23
:1004100010B5054C237833B9044B13B10448AFF33E
:1004200000800123237010BDE012FF1F00000000B8
:100430009CB40000084B10B51BB108490848AFF345
:1004400000800848036803B910BD074B002BFBD0A0
:10045000BDE81040184700BF00000000E412FF1F75
:100460009CB40000DC12FF1F0000000043680B700A
:1004700043681B0A4B70C3888B70C379CB70836849
:100480000B7183681B0A4B7143898B71C37ACB71E3
:10049000082070470B7843604A7843EA02234360A0
:1004A0008A7843EA02434360CA7843EA02634360BE
:1004B0000B7983604A7943EA022383608A7943EAAD
:1004C00002438360CA7943EA02638360082070476D
:1004D000004870478CAF0000004870479CAF000098
:1004E00000487047C0AF000000487047DCAF000014
:1004F0000048704700B000000048704714B000008A
:100500000048704770AF00000048704738B00000E6
:1005100043680B701A0C10B41C0A1B0E4C708A70C6
:10052000CB7083680B711C0A1A0C1B0E4C718A71FC
:10053000CB71C3680B72180A1A0C1B0E48728A72B0
:100540000C20CB725DF8044B704700BF0A68426014
:100550004A68826003468A68DA600C20704700BFF0
:10056000004870475CB000000048704774B000005D
:1005700043680B7010B41A0C1C0A1B0E4C708A7066
:10058000CB7083680B711C0A1A0C1B0E4C718A719C
:10059000CB71037B0B72437B4B72837B8B72C37B70
:1005A000CB720C205DF8044B704700BF0B684360B2
:1005B0004B6883600B7A03734B7A43738B7A837334
:1005C000CB7AC3730C2070470048704798B0000086
:1005D00000487047B0B00000B0F904300B70C3F3AE
:1005E00007234B7083798B70C379CB7004207047DD
:1005F0004A780B7843EA022383808B788371CB7827
:10060000C3710420704700BF00487047D4B0000099
:1006100000487047E8B0000090F85408704700BFE9
:1006200008F0B6B92DE9F043002203790B704A7047
:100630008A70CA70037983B0002B63D00C460425FE
:10064000C36853F8223023711F0A1E0C1B0E6771FA
:10065000A671E37101320379D2B2934205F1040528
:1006600004F10404ECD82A1D134605F1010EAF1C59
:10067000EE1C047C4C55002401F80E40CC558C55E2
:10068000057CA5B1CD18826952F82420CA54170AF6
:10069000160C120E6F70AE70EA700134027CE4B278
:1006A000A24203F1040305F10405ECD81A46047FC5
:1006B0008C54CA18002555709570D570027F1C1D8A
:1006C000E2B10F468146D9F824302EB2013553F8F5
:1006D00026000AF0D5F90190804601983851D9F8E2
:1006E0002430043453F826103819424606F080FFAF
:1006F00099F81C30EDB2AB424444E4D8204603B034
:10070000BDE8F08308221346072606274FF0050EA2
:100710000425AEE770B503790B7082B00646806899
:100720000D460AF0ADF902AB044643F8040D02464B
:100730001868C5F80100B168681D06F059FF601D12
:1007400002B070BD83882DE9F0410B7083881B0ACD
:100750004B7084B0064680680D460AF091F904ABF0
:10076000024643F80C0D04461868C5F80200B1684B
:10077000A81D06F03DFFF0680AF082F904ABA21D47
:1007800043F8080D80461868A8500A34F1684246BC
:10079000281906F02DFF30690AF072F904AB4444C1
:1007A00043F8040D074618682851043431692819A4
:1007B0003A4606F01DFF381973692B540544190A8F
:1007C0001A0C04301B0E6970AA70EB7004B0BDE8FF
:1007D000F08100BFF0B40B4682B013F8012B027118
:1007E000064618680190019D681D052801F104075F
:1007F00008D92C1D3B460C4413F8012F03F8012C9B
:10080000A342F9D10D4400232B71B76002B0F0BCB4
:10081000704700BFF0B40B7883804A7843EA022324
:1008200084B083800546D1F802000190019A961D9C
:10083000062E01F1050708D9541D3B460C4413F858
:10084000010F03F8010C9C42F9D18B18002058715C
:10085000AF6088590290029B043633449E4209D20D
:1008600009320A443046013012F8014F02F8014CB7
:100870009842F8D3CA18013E0E44002002F8010C39
:10088000EE601068039003981E1D3044864209D222
:1008900003330B443246013213F8014F03F8014C85
:1008A0008242F8D30F18013E0E44002307F8013CA2
:1008B0002E61BC787B780A5CFE78210441EA032330
:1008C000134343EA066304306B6104B0F0BC704725
:1008D000084608F047B900BF2DE9F04103790C78CC
:1008E000A34282B005460E46C0F083802C71002CD6
:1008F00000F0888005F1080C324600234FF0040E0A
:1009000097795179107992F80780EC683F0447EAAB
:100910000121014341EA0861A960DCF8001044F8B4
:10092000231001332979DBB299420EF1040E02F152
:100930000402E5D816F80E802B7C0EF1040743451F
:100940003C4668D385F81080B8F1000F20D005F13F
:10095000140C3219002392F802E05178177892F8BB
:100960000380A8694FEA0E4E4EEA0121394341EA5D
:1009700008616961DCF8001040F823100133297C1C
:10098000DBB2994204F1040402F10402E3D82746E1
:10099000F75D2B7FBB4245D3231D2F772FB3002755
:1009A000BC4605F1200EF058019001981C1D204412
:1009B000844209D2033333442246013213F8011F23
:1009C00003F8011C8242F8D33318013C03F801CC30
:1009D00034446B6A2C62DEF8002043F8272001378C
:1009E0002A7FFFB2BA420346DDD8184602B0BDE8FE
:1009F000F081A100C06809F031FE2C71E860002C84
:100A00007FF478AF4FF0040E2B7C16F80E80082789
:100A100043453C4696D24FEA8801A86909F01EFE7C
:100A2000A8618FE7B900686A09F018FE6862B3E749
:100A3000F0B585B0354A01920368354D0395032220
:100A40008DF808201B6833498B4257D104AB3821FD
:100A500043F8101D0446186884F81F24C4F82004C5
:100A600005F1300E04F224472E460FCE764538604D
:100A70007960BA60FB60354607F11007F4D103CD09
:100A800000227960C2234FF0FF0EFE263D2507218C
:100A9000386084F81C3484F818E484F8196484F805
:100AA0001A5484F81B2484F81E2484F81D1404F2BC
:100AB0001D4304F25B4001E013F8011F98420A4411
:100AC000FAD1D243144E84F85C2404F2174504F2A0
:100AD0005C4703E008F046F8BD420BD0626815F8A9
:100AE000011F13681B68B3420846F3D010469847AD
:100AF000BD42F3D14FF0FF3005B0F0BD01AA072190
:100B000098474FF0FF3005B0F0BD00BFECAE0000DD
:100B10000CB10000ED2B0000D1080000214B10B4F7
:100B20001A681368506819780478507A137A044266
:100B300001EA03011BD0937A03F0030309B143F0E8
:100B4000040343F008039910013B91720D2B0BD85D
:100B5000DFE803F021071B070A152121150A071BEF
:100B60000721D368013BD3605DF8044B7047937A4B
:100B700003F003030029E6D043F00403E3E7D3685E
:100B80005DF8044B023BD3607047D3685DF8044BBB
:100B90000233D3607047D3685DF8044B0133D360F0
:100BA000704700BF881DFF1F214B10B45A6813689F
:100BB000506819780478507A137A044201EA0301E4
:100BC0001BD0937A03F0030309B143F0040343F00D
:100BD00008039910013B91720D2B0BD8DFE803F04D
:100BE00021071B070A152121150A071B0721D368B6
:100BF000013BD3605DF8044B7047937A03F0030325
:100C00000029E6D043F00403E3E7D3685DF8044B22
:100C1000023BD3607047D3685DF8044B0233D36066
:100C20007047D3685DF8044B0133D360704700BF51
:100C3000881DFF1F214B10B49A68136850681978FB
:100C40000478507A137A044201EA03011BD0937AA4
:100C500003F0030309B143F0040343F008039910C0
:100C6000013B91720D2B0BD8DFE803F021071B0726
:100C70000A152121150A071B0721D368013BD36000
:100C80005DF8044B7047937A03F003030029E6D024
:100C900043F00403E3E7D3685DF8044B023BD36001
:100CA0007047D3685DF8044B0233D3607047D36854
:100CB0005DF8044B0133D360704700BF881DFF1FF0
:100CC000214B10B4DA681368506819780478507AA8
:100CD000137A044201EA03011BD0937A03F0030361
:100CE00009B143F0040343F008039910013B9172EA
:100CF0000D2B0BD8DFE803F021071B070A15212174
:100D0000150A071B0721D368013BD3605DF8044B2C
:100D10007047937A03F003030029E6D043F00403FD
:100D2000E3E7D3685DF8044B023BD3607047D368B8
:100D30005DF8044B0233D3607047D3685DF8044B11
:100D40000133D360704700BF881DFF1F214B10B4D3
:100D50001A691368506819780478507A137A044233
:100D600001EA03011BD0937A03F0030309B143F0B6
:100D7000040343F008039910013B91720D2B0BD82B
:100D8000DFE803F021071B070A152121150A071BBD
:100D90000721D368013BD3605DF8044B7047937A19
:100DA00003F003030029E6D043F00403E3E7D3682C
:100DB0005DF8044B023BD3607047D3685DF8044B89
:100DC0000233D3607047D3685DF8044B0133D360BE
:100DD000704700BF881DFF1F214B10B45A6913686C
:100DE000506819780478507A137A044201EA0301B2
:100DF0001BD0937A03F0030309B143F0040343F0DB
:100E000008039910013B91720D2B0BD8DFE803F01A
:100E100021071B070A152121150A071B0721D36883
:100E2000013BD3605DF8044B7047937A03F00303F2
:100E30000029E6D043F00403E3E7D3685DF8044BF0
:100E4000023BD3607047D3685DF8044B0233D36034
:100E50007047D3685DF8044B0133D360704700BF1F
:100E6000881DFF1F214B10B49A69136850681978C8
:100E70000478507A137A044201EA03011BD0937A72
:100E800003F0030309B143F0040343F0080399108E
:100E9000013B91720D2B0BD8DFE803F021071B07F4
:100EA0000A152121150A071B0721D368013BD360CE
:100EB0005DF8044B7047937A03F003030029E6D0F2
:100EC00043F00403E3E7D3685DF8044B023BD360CF
:100ED0007047D3685DF8044B0233D3607047D36822
:100EE0005DF8044B0133D360704700BF881DFF1FBE
:100EF000214B10B4DA691368506819780478507A75
:100F0000137A044201EA03011BD0937A03F003032E
:100F100009B143F0040343F008039910013B9172B7
:100F20000D2B0BD8DFE803F021071B070A15212141
:100F3000150A071B0721D368013BD3605DF8044BFA
:100F40007047937A03F003030029E6D043F00403CB
:100F5000E3E7D3685DF8044B023BD3607047D36886
:100F60005DF8044B0233D3607047D3685DF8044BDF
:100F70000133D360704700BF881DFF1F214B10B4A1
:100F80001A6A1368506819780478507A137A044200
:100F900001EA03011BD0937A03F0030309B143F084
:100FA000040343F008039910013B91720D2B0BD8F9
:100FB000DFE803F021071B070A152121150A071B8B
:100FC0000721D368013BD3605DF8044B7047937AE7
:100FD00003F003030029E6D043F00403E3E7D368FA
:100FE0005DF8044B023BD3607047D3685DF8044B57
:100FF0000233D3607047D3685DF8044B0133D3608C
:10100000704700BF881DFF1F214B10B45A6A136838
:10101000506819780478507A137A044201EA03017F
:101020001BD0937A03F0030309B143F0040343F0A8
:1010300008039910013B91720D2B0BD8DFE803F0E8
:1010400021071B070A152121150A071B0721D36851
:10105000013BD3605DF8044B7047937A03F00303C0
:101060000029E6D043F00403E3E7D3685DF8044BBE
:10107000023BD3607047D3685DF8044B0233D36002
:101080007047D3685DF8044B0133D360704700BFED
:10109000881DFF1F214B10B49A6A13685068197895
:1010A0000478507A137A044201EA03011BD0937A40
:1010B00003F0030309B143F0040343F0080399105C
:1010C000013B91720D2B0BD8DFE803F021071B07C2
:1010D0000A152121150A071B0721D368013BD3609C
:1010E0005DF8044B7047937A03F003030029E6D0C0
:1010F00043F00403E3E7D3685DF8044B023BD3609D
:101100007047D3685DF8044B0233D3607047D368EF
:101110005DF8044B0133D360704700BF881DFF1F8B
:10112000214B10B4DA6A1368506819780478507A41
:10113000137A044201EA03011BD0937A03F00303FC
:1011400009B143F0040343F008039910013B917285
:101150000D2B0BD8DFE803F021071B070A1521210F
:10116000150A071B0721D368013BD3605DF8044BC8
:101170007047937A03F003030029E6D043F0040399
:10118000E3E7D3685DF8044B023BD3607047D36854
:101190005DF8044B0233D3607047D3685DF8044BAD
:1011A0000133D360704700BF881DFF1F214B10B46F
:1011B0001A6B1368506819780478507A137A0442CD
:1011C00001EA03011BD0937A03F0030309B143F052
:1011D000040343F008039910013B91720D2B0BD8C7
:1011E000DFE803F021071B070A152121150A071B59
:1011F0000721D368013BD3605DF8044B7047937AB5
:1012000003F003030029E6D043F00403E3E7D368C7
:101210005DF8044B023BD3607047D3685DF8044B24
:101220000233D3607047D3685DF8044B0133D36059
:10123000704700BF881DFF1F214B10B45A6B136805
:10124000506819780478507A137A044201EA03014D
:101250001BD0937A03F0030309B143F0040343F076
:1012600008039910013B91720D2B0BD8DFE803F0B6
:1012700021071B070A152121150A071B0721D3681F
:10128000013BD3605DF8044B7047937A03F003038E
:101290000029E6D043F00403E3E7D3685DF8044B8C
:1012A000023BD3607047D3685DF8044B0233D360D0
:1012B0007047D3685DF8044B0133D360704700BFBB
:1012C000881DFF1F214B10B49A6B13685068197862
:1012D0000478507A137A044201EA03011BD0937A0E
:1012E00003F0030309B143F0040343F0080399102A
:1012F000013B91720D2B0BD8DFE803F021071B0790
:101300000A152121150A071B0721D368013BD36069
:101310005DF8044B7047937A03F003030029E6D08D
:1013200043F00403E3E7D3685DF8044B023BD3606A
:101330007047D3685DF8044B0233D3607047D368BD
:101340005DF8044B0133D360704700BF881DFF1F59
:10135000214B10B4D3F8EC20136850681978047846
:10136000507A137A044201EA03011BD0937A03F006
:10137000030309B143F0040343F008039910013B50
:1013800091720D2B0BD8DFE803F021071B070A151C
:101390002121150A071B0721D368013BD3605DF8A3
:1013A000044B7047937A03F003030029E6D043F01F
:1013B0000403E3E7D3685DF8044B023BD360704756
:1013C000D3685DF8044B0233D3607047D3685DF88F
:1013D000044B0133D3607047881DFF1F214B10B4AD
:1013E000D3F8BC201368506819780478507A137ABF
:1013F000044201EA03011BD0937A03F0030309B10D
:1014000043F0040343F008039910013B91720D2B44
:101410000BD8DFE803F021071B070A152121150A65
:10142000071B0721D368013BD3605DF8044B70476D
:10143000937A03F003030029E6D043F00403E3E7C3
:10144000D3685DF8044B023BD3607047D3685DF806
:10145000044B0233D3607047D3685DF8044B01330B
:10146000D3607047881DFF1F214B10B4D3F8C020F4
:101470001368506819780478507A137A044201EAA4
:1014800003011BD0937A03F0030309B143F0040373
:1014900043F008039910013B91720D2B0BD8DFE844
:1014A00003F021071B070A152121150A071B072135
:1014B000D368013BD3605DF8044B7047937A03F027
:1014C00003030029E6D043F00403E3E7D3685DF8A3
:1014D000044B023BD3607047D3685DF8044B023382
:1014E000D3607047D3685DF8044B0133D360704715
:1014F000881DFF1F214B10B4D3F8C4201368506817
:1015000019780478507A137A044201EA03011BD057
:10151000937A03F0030309B143F0040343F0080393
:101520009910013B91720D2B0BD8DFE803F02107D6
:101530001B070A152121150A071B0721D368013B48
:10154000D3605DF8044B7047937A03F003030029DE
:10155000E6D043F00403E3E7D3685DF8044B023BB5
:10156000D3607047D3685DF8044B0233D360704793
:10157000D3685DF8044B0133D3607047881DFF1FAB
:10158000214B10B4D3F8C820136850681978047838
:10159000507A137A044201EA03011BD0937A03F0D4
:1015A000030309B143F0040343F008039910013B1E
:1015B00091720D2B0BD8DFE803F021071B070A15EA
:1015C0002121150A071B0721D368013BD3605DF871
:1015D000044B7047937A03F003030029E6D043F0ED
:1015E0000403E3E7D3685DF8044B023BD360704724
:1015F000D3685DF8044B0233D3607047D3685DF85D
:10160000044B0133D3607047881DFF1F214B10B47A
:10161000D3F8CC201368506819780478507A137A7C
:10162000044201EA03011BD0937A03F0030309B1DA
:1016300043F0040343F008039910013B91720D2B12
:101640000BD8DFE803F021071B070A152121150A33
:10165000071B0721D368013BD3605DF8044B70473B
:10166000937A03F003030029E6D043F00403E3E791
:10167000D3685DF8044B023BD3607047D3685DF8D4
:10168000044B0233D3607047D3685DF8044B0133D9
:10169000D3607047881DFF1F214B10B4D3F8D020B2
:1016A0001368506819780478507A137A044201EA72
:1016B00003011BD0937A03F0030309B143F0040341
:1016C00043F008039910013B91720D2B0BD8DFE812
:1016D00003F021071B070A152121150A071B072103
:1016E000D368013BD3605DF8044B7047937A03F0F5
:1016F00003030029E6D043F00403E3E7D3685DF871
:10170000044B023BD3607047D3685DF8044B02334F
:10171000D3607047D3685DF8044B0133D3607047E2
:10172000881DFF1F214B10B4D3F8D42013685068D4
:1017300019780478507A137A044201EA03011BD025
:10174000937A03F0030309B143F0040343F0080361
:101750009910013B91720D2B0BD8DFE803F02107A4
:101760001B070A152121150A071B0721D368013B16
:10177000D3605DF8044B7047937A03F003030029AC
:10178000E6D043F00403E3E7D3685DF8044B023B83
:10179000D3607047D3685DF8044B0233D360704761
:1017A000D3685DF8044B0133D3607047881DFF1F79
:1017B000214B10B4D3F8D8201368506819780478F6
:1017C000507A137A044201EA03011BD0937A03F0A2
:1017D000030309B143F0040343F008039910013BEC
:1017E00091720D2B0BD8DFE803F021071B070A15B8
:1017F0002121150A071B0721D368013BD3605DF83F
:10180000044B7047937A03F003030029E6D043F0BA
:101810000403E3E7D3685DF8044B023BD3607047F1
:10182000D3685DF8044B0233D3607047D3685DF82A
:10183000044B0133D3607047881DFF1F214B10B448
:10184000D3F8DC201368506819780478507A137A3A
:10185000044201EA03011BD0937A03F0030309B1A8
:1018600043F0040343F008039910013B91720D2BE0
:101870000BD8DFE803F021071B070A152121150A01
:10188000071B0721D368013BD3605DF8044B704709
:10189000937A03F003030029E6D043F00403E3E75F
:1018A000D3685DF8044B023BD3607047D3685DF8A2
:1018B000044B0233D3607047D3685DF8044B0133A7
:1018C000D3607047881DFF1F214B10B4D3F8E02070
:1018D0001368506819780478507A137A044201EA40
:1018E00003011BD0937A03F0030309B143F004030F
:1018F00043F008039910013B91720D2B0BD8DFE8E0
:1019000003F021071B070A152121150A071B0721D0
:10191000D368013BD3605DF8044B7047937A03F0C2
:1019200003030029E6D043F00403E3E7D3685DF83E
:10193000044B023BD3607047D3685DF8044B02331D
:10194000D3607047D3685DF8044B0133D3607047B0
:10195000881DFF1F214B10B4D3F8E4201368506892
:1019600019780478507A137A044201EA03011BD0F3
:10197000937A03F0030309B143F0040343F008032F
:101980009910013B91720D2B0BD8DFE803F0210772
:101990001B070A152121150A071B0721D368013BE4
:1019A000D3605DF8044B7047937A03F0030300297A
:1019B000E6D043F00403E3E7D3685DF8044B023B51
:1019C000D3607047D3685DF8044B0233D36070472F
:1019D000D3685DF8044B0133D3607047881DFF1F47
:1019E000214B10B4D3F8E8201368506819780478B4
:1019F000507A137A044201EA03011BD0937A03F070
:101A0000030309B143F0040343F008039910013BB9
:101A100091720D2B0BD8DFE803F021071B070A1585
:101A20002121150A071B0721D368013BD3605DF80C
:101A3000044B7047937A03F003030029E6D043F088
:101A40000403E3E7D3685DF8044B023BD3607047BF
:101A5000D3685DF8044B0233D3607047D3685DF8F8
:101A6000044B0133D3607047881DFF1F214B10B416
:101A7000DA6B1368506819780478507A137A044244
:101A800001EA03011BD0937A03F0030309B143F089
:101A9000040343F008039910013B91720D2B0BD8FE
:101AA000DFE803F021071B070A152121150A071B90
:101AB0000721D368013BD3605DF8044B7047937AEC
:101AC00003F003030029E6D043F00403E3E7D368FF
:101AD0005DF8044B023BD3607047D3685DF8044B5C
:101AE0000233D3607047D3685DF8044B0133D36091
:101AF000704700BF881DFF1F214B10B41A6C13687C
:101B0000506819780478507A137A044201EA030184
:101B10001BD0937A03F0030309B143F0040343F0AD
:101B200008039910013B91720D2B0BD8DFE803F0ED
:101B300021071B070A152121150A071B0721D36856
:101B4000013BD3605DF8044B7047937A03F00303C5
:101B50000029E6D043F00403E3E7D3685DF8044BC3
:101B6000023BD3607047D3685DF8044B0233D36007
:101B70007047D3685DF8044B0133D360704700BFF2
:101B8000881DFF1F214B10B45A6C136850681978D8
:101B90000478507A137A044201EA03011BD0937A45
:101BA00003F0030309B143F0040343F00803991061
:101BB000013B91720D2B0BD8DFE803F021071B07C7
:101BC0000A152121150A071B0721D368013BD360A1
:101BD0005DF8044B7047937A03F003030029E6D0C5
:101BE00043F00403E3E7D3685DF8044B023BD360A2
:101BF0007047D3685DF8044B0233D3607047D368F5
:101C00005DF8044B0133D360704700BF881DFF1F90
:101C1000214B10B49A6C1368506819780478507A84
:101C2000137A044201EA03011BD0937A03F0030301
:101C300009B143F0040343F008039910013B91728A
:101C40000D2B0BD8DFE803F021071B070A15212114
:101C5000150A071B0721D368013BD3605DF8044BCD
:101C60007047937A03F003030029E6D043F004039E
:101C7000E3E7D3685DF8044B023BD3607047D36859
:101C80005DF8044B0233D3607047D3685DF8044BB2
:101C90000133D360704700BF881DFF1F214B10B474
:101CA000DA6C1368506819780478507A137A044211
:101CB00001EA03011BD0937A03F0030309B143F057
:101CC000040343F008039910013B91720D2B0BD8CC
:101CD000DFE803F021071B070A152121150A071B5E
:101CE0000721D368013BD3605DF8044B7047937ABA
:101CF00003F003030029E6D043F00403E3E7D368CD
:101D00005DF8044B023BD3607047D3685DF8044B29
:101D10000233D3607047D3685DF8044B0133D3605E
:101D2000704700BF881DFF1F214B10B41A6D136848
:101D3000506819780478507A137A044201EA030152
:101D40001BD0937A03F0030309B143F0040343F07B
:101D500008039910013B91720D2B0BD8DFE803F0BB
:101D600021071B070A152121150A071B0721D36824
:101D7000013BD3605DF8044B7047937A03F0030393
:101D80000029E6D043F00403E3E7D3685DF8044B91
:101D9000023BD3607047D3685DF8044B0233D360D5
:101DA0007047D3685DF8044B0133D360704700BFC0
:101DB000881DFF1F214B10B45A6D136850681978A5
:101DC0000478507A137A044201EA03011BD0937A13
:101DD00003F0030309B143F0040343F0080399102F
:101DE000013B91720D2B0BD8DFE803F021071B0795
:101DF0000A152121150A071B0721D368013BD3606F
:101E00005DF8044B7047937A03F003030029E6D092
:101E100043F00403E3E7D3685DF8044B023BD3606F
:101E20007047D3685DF8044B0233D3607047D368C2
:101E30005DF8044B0133D360704700BF881DFF1F5E
:101E4000214B10B49A6D1368506819780478507A51
:101E5000137A044201EA03011BD0937A03F00303CF
:101E600009B143F0040343F008039910013B917258
:101E70000D2B0BD8DFE803F021071B070A152121E2
:101E8000150A071B0721D368013BD3605DF8044B9B
:101E90007047937A03F003030029E6D043F004036C
:101EA000E3E7D3685DF8044B023BD3607047D36827
:101EB0005DF8044B0233D3607047D3685DF8044B80
:101EC0000133D360704700BF881DFF1F214B10B442
:101ED000DA6D1368506819780478507A137A0442DE
:101EE00001EA03011BD0937A03F0030309B143F025
:101EF000040343F008039910013B91720D2B0BD89A
:101F0000DFE803F021071B070A152121150A071B2B
:101F10000721D368013BD3605DF8044B7047937A87
:101F200003F003030029E6D043F00403E3E7D3689A
:101F30005DF8044B023BD3607047D3685DF8044BF7
:101F40000233D3607047D3685DF8044B0133D3602C
:101F5000704700BF881DFF1F214B10B41A6E136815
:101F6000506819780478507A137A044201EA030120
:101F70001BD0937A03F0030309B143F0040343F049
:101F800008039910013B91720D2B0BD8DFE803F089
:101F900021071B070A152121150A071B0721D368F2
:101FA000013BD3605DF8044B7047937A03F0030361
:101FB0000029E6D043F00403E3E7D3685DF8044B5F
:101FC000023BD3607047D3685DF8044B0233D360A3
:101FD0007047D3685DF8044B0133D360704700BF8E
:101FE000881DFF1F214B10B45A6E13685068197872
:101FF0000478507A137A044201EA03011BD0937AE1
:1020000003F0030309B143F0040343F008039910FC
:10201000013B91720D2B0BD8DFE803F021071B0762
:102020000A152121150A071B0721D368013BD3603C
:102030005DF8044B7047937A03F003030029E6D060
:1020400043F00403E3E7D3685DF8044B023BD3603D
:102050007047D3685DF8044B0233D3607047D36890
:102060005DF8044B0133D360704700BF881DFF1F2C
:10207000214B10B49A6E1368506819780478507A1E
:10208000137A044201EA03011BD0937A03F003039D
:1020900009B143F0040343F008039910013B917226
:1020A0000D2B0BD8DFE803F021071B070A152121B0
:1020B000150A071B0721D368013BD3605DF8044B69
:1020C0007047937A03F003030029E6D043F004033A
:1020D000E3E7D3685DF8044B023BD3607047D368F5
:1020E0005DF8044B0233D3607047D3685DF8044B4E
:1020F0000133D360704700BF881DFF1F214B10B410
:10210000DA6E1368506819780478507A137A0442AA
:1021100001EA03011BD0937A03F0030309B143F0F2
:10212000040343F008039910013B91720D2B0BD867
:10213000DFE803F021071B070A152121150A071BF9
:102140000721D368013BD3605DF8044B7047937A55
:1021500003F003030029E6D043F00403E3E7D36868
:102160005DF8044B023BD3607047D3685DF8044BC5
:102170000233D3607047D3685DF8044B0133D360FA
:10218000704700BF881DFF1F214B10B41A6F1368E2
:10219000506819780478507A137A044201EA0301EE
:1021A0001BD0937A03F0030309B143F0040343F017
:1021B00008039910013B91720D2B0BD8DFE803F057
:1021C00021071B070A152121150A071B0721D368C0
:1021D000013BD3605DF8044B7047937A03F003032F
:1021E0000029E6D043F00403E3E7D3685DF8044B2D
:1021F000023BD3607047D3685DF8044B0233D36071
:102200007047D3685DF8044B0133D360704700BF5B
:10221000881DFF1F214B10B45A6F1368506819783E
:102220000478507A137A044201EA03011BD0937AAE
:1022300003F0030309B143F0040343F008039910CA
:10224000013B91720D2B0BD8DFE803F021071B0730
:102250000A152121150A071B0721D368013BD3600A
:102260005DF8044B7047937A03F003030029E6D02E
:1022700043F00403E3E7D3685DF8044B023BD3600B
:102280007047D3685DF8044B0233D3607047D3685E
:102290005DF8044B0133D360704700BF881DFF1FFA
:1022A000214B10B49A6F1368506819780478507AEB
:1022B000137A044201EA03011BD0937A03F003036B
:1022C00009B143F0040343F008039910013B9172F4
:1022D0000D2B0BD8DFE803F021071B070A1521217E
:1022E000150A071B0721D368013BD3605DF8044B37
:1022F0007047937A03F003030029E6D043F0040308
:10230000E3E7D3685DF8044B023BD3607047D368C2
:102310005DF8044B0233D3607047D3685DF8044B1B
:102320000133D360704700BF881DFF1F214B10B4DD
:10233000DA6F1368506819780478507A137A044277
:1023400001EA03011BD0937A03F0030309B143F0C0
:10235000040343F008039910013B91720D2B0BD835
:10236000DFE803F021071B070A152121150A071BC7
:102370000721D368013BD3605DF8044B7047937A23
:1023800003F003030029E6D043F00403E3E7D36836
:102390005DF8044B023BD3607047D3685DF8044B93
:1023A0000233D3607047D3685DF8044B0133D360C8
:1023B000704700BF881DFF1F214B10B4D3F8802049
:1023C0001368506819780478507A137A044201EA45
:1023D00003011BD0937A03F0030309B143F0040314
:1023E00043F008039910013B91720D2B0BD8DFE8E5
:1023F00003F021071B070A152121150A071B0721D6
:10240000D368013BD3605DF8044B7047937A03F0C7
:1024100003030029E6D043F00403E3E7D3685DF843
:10242000044B023BD3607047D3685DF8044B023322
:10243000D3607047D3685DF8044B0133D3607047B5
:10244000881DFF1F214B10B4D3F8842013685068F7
:1024500019780478507A137A044201EA03011BD0F8
:10246000937A03F0030309B143F0040343F0080334
:102470009910013B91720D2B0BD8DFE803F0210777
:102480001B070A152121150A071B0721D368013BE9
:10249000D3605DF8044B7047937A03F0030300297F
:1024A000E6D043F00403E3E7D3685DF8044B023B56
:1024B000D3607047D3685DF8044B0233D360704734
:1024C000D3685DF8044B0133D3607047881DFF1F4C
:1024D000214B10B4D3F88820136850681978047819
:1024E000507A137A044201EA03011BD0937A03F075
:1024F000030309B143F0040343F008039910013BBF
:1025000091720D2B0BD8DFE803F021071B070A158A
:102510002121150A071B0721D368013BD3605DF811
:10252000044B7047937A03F003030029E6D043F08D
:102530000403E3E7D3685DF8044B023BD3607047C4
:10254000D3685DF8044B0233D3607047D3685DF8FD
:10255000044B0133D3607047881DFF1F214B10B41B
:10256000D3F88C201368506819780478507A137A5D
:10257000044201EA03011BD0937A03F0030309B17B
:1025800043F0040343F008039910013B91720D2BB3
:102590000BD8DFE803F021071B070A152121150AD4
:1025A000071B0721D368013BD3605DF8044B7047DC
:1025B000937A03F003030029E6D043F00403E3E732
:1025C000D3685DF8044B023BD3607047D3685DF875
:1025D000044B0233D3607047D3685DF8044B01337A
:1025E000D3607047881DFF1F214B10B4D3F8902093
:1025F0001368506819780478507A137A044201EA13
:1026000003011BD0937A03F0030309B143F00403E1
:1026100043F008039910013B91720D2B0BD8DFE8B2
:1026200003F021071B070A152121150A071B0721A3
:10263000D368013BD3605DF8044B7047937A03F095
:1026400003030029E6D043F00403E3E7D3685DF811
:10265000044B023BD3607047D3685DF8044B0233F0
:10266000D3607047D3685DF8044B0133D360704783
:10267000881DFF1F214B10B4D3F8942013685068B5
:1026800019780478507A137A044201EA03011BD0C6
:10269000937A03F0030309B143F0040343F0080302
:1026A0009910013B91720D2B0BD8DFE803F0210745
:1026B0001B070A152121150A071B0721D368013BB7
:1026C000D3605DF8044B7047937A03F0030300294D
:1026D000E6D043F00403E3E7D3685DF8044B023B24
:1026E000D3607047D3685DF8044B0233D360704702
:1026F000D3685DF8044B0133D3607047881DFF1F1A
:10270000214B10B4D3F898201368506819780478D6
:10271000507A137A044201EA03011BD0937A03F042
:10272000030309B143F0040343F008039910013B8C
:1027300091720D2B0BD8DFE803F021071B070A1558
:102740002121150A071B0721D368013BD3605DF8DF
:10275000044B7047937A03F003030029E6D043F05B
:102760000403E3E7D3685DF8044B023BD360704792
:10277000D3685DF8044B0233D3607047D3685DF8CB
:10278000044B0133D3607047881DFF1F214B10B4E9
:10279000D3F89C201368506819780478507A137A1B
:1027A000044201EA03011BD0937A03F0030309B149
:1027B00043F0040343F008039910013B91720D2B81
:1027C0000BD8DFE803F021071B070A152121150AA2
:1027D000071B0721D368013BD3605DF8044B7047AA
:1027E000937A03F003030029E6D043F00403E3E700
:1027F000D3685DF8044B023BD3607047D3685DF843
:10280000044B0233D3607047D3685DF8044B013347
:10281000D3607047881DFF1F214B10B4D3F8A02050
:102820001368506819780478507A137A044201EAE0
:1028300003011BD0937A03F0030309B143F00403AF
:1028400043F008039910013B91720D2B0BD8DFE880
:1028500003F021071B070A152121150A071B072171
:10286000D368013BD3605DF8044B7047937A03F063
:1028700003030029E6D043F00403E3E7D3685DF8DF
:10288000044B023BD3607047D3685DF8044B0233BE
:10289000D3607047D3685DF8044B0133D360704751
:1028A000881DFF1F214B10B4D3F8A4201368506873
:1028B00019780478507A137A044201EA03011BD094
:1028C000937A03F0030309B143F0040343F00803D0
:1028D0009910013B91720D2B0BD8DFE803F0210713
:1028E0001B070A152121150A071B0721D368013B85
:1028F000D3605DF8044B7047937A03F0030300291B
:10290000E6D043F00403E3E7D3685DF8044B023BF1
:10291000D3607047D3685DF8044B0233D3607047CF
:10292000D3685DF8044B0133D3607047881DFF1FE7
:10293000214B10B4D3F8A820136850681978047894
:10294000507A137A044201EA03011BD0937A03F010
:10295000030309B143F0040343F008039910013B5A
:1029600091720D2B0BD8DFE803F021071B070A1526
:102970002121150A071B0721D368013BD3605DF8AD
:10298000044B7047937A03F003030029E6D043F029
:102990000403E3E7D3685DF8044B023BD360704760
:1029A000D3685DF8044B0233D3607047D3685DF899
:1029B000044B0133D3607047881DFF1F214B10B4B7
:1029C000D3F8AC201368506819780478507A137AD9
:1029D000044201EA03011BD0937A03F0030309B117
:1029E00043F0040343F008039910013B91720D2B4F
:1029F0000BD8DFE803F021071B070A152121150A70
:102A0000071B0721D368013BD3605DF8044B704777
:102A1000937A03F003030029E6D043F00403E3E7CD
:102A2000D3685DF8044B023BD3607047D3685DF810
:102A3000044B0233D3607047D3685DF8044B013315
:102A4000D3607047881DFF1F214B10B4D3F8B0200E
:102A50001368506819780478507A137A044201EAAE
:102A600003011BD0937A03F0030309B143F004037D
:102A700043F008039910013B91720D2B0BD8DFE84E
:102A800003F021071B070A152121150A071B07213F
:102A9000D368013BD3605DF8044B7047937A03F031
:102AA00003030029E6D043F00403E3E7D3685DF8AD
:102AB000044B023BD3607047D3685DF8044B02338C
:102AC000D3607047D3685DF8044B0133D36070471F
:102AD000881DFF1F214B10B4D3F8B4201368506831
:102AE00019780478507A137A044201EA03011BD062
:102AF000937A03F0030309B143F0040343F008039E
:102B00009910013B91720D2B0BD8DFE803F02107E0
:102B10001B070A152121150A071B0721D368013B52
:102B2000D3605DF8044B7047937A03F003030029E8
:102B3000E6D043F00403E3E7D3685DF8044B023BBF
:102B4000D3607047D3685DF8044B0233D36070479D
:102B5000D3685DF8044B0133D3607047881DFF1FB5
:102B6000214B10B4D3F8B820136850681978047852
:102B7000507A137A044201EA03011BD0937A03F0DE
:102B8000030309B143F0040343F008039910013B28
:102B900091720D2B0BD8DFE803F021071B070A15F4
:102BA0002121150A071B0721D368013BD3605DF87B
:102BB000044B7047937A03F003030029E6D043F0F7
:102BC0000403E3E7D3685DF8044B023BD36070472E
:102BD000D3685DF8044B0233D3607047D3685DF867
:102BE000044B0133D3607047881DFF1F2DE9F0416E
:102BF000632984B003DD90F85468002E55D0136823
:102C000005460E4610461B6805F21F419847C2B2A2
:102C1000C0F307215418E44380B200F21E434FF082
:102C2000FF0C85F81A244FF0FE0E46F3072285F8B4
:102C30001C4405F21D47F4B285F81B1485F81E24C8
:102C4000E91885F818C485F819E485F81D443B4651
:102C5000002201E013F8014F99422244FAD1C31D2A
:102C600000F1080615FA83F3B6B2D243B6F5806FC9
:102C700083F818241DD805F58362B6B1771EDFF8F6
:102C80000C81D71905F2174403E005F06BFFA7424A
:102C90000BD06A6814F8011F13681B684345084687
:102CA000F3D010469847A742F3D1304604B0BDE8B0
:102CB000F081334A0192334C2B68039403228DF840
:102CC00008201B6830498B4252D104AB382143F8AD
:102CD000101D186885F81F24C5F8200404F1300C75
:102CE00005F22446A646BEE80F00E6453060716056
:102CF000B260F360744606F11006F3D103CC0023F2
:102D000071604FF0FF0CC2214FF0FE0E3D240722F0
:102D1000306085F81C1485F818C485F819E485F826
:102D20001A4485F81B3485F81E3485F81D2405F2F5
:102D30005B4101E017F8012FB9421344FAD1DB439C
:102D4000DFF8488085F85C3405F2174405F25C46EC
:102D500003E005F007FFB4420ED06A6814F8011FC3
:102D600013681B6843450846F3D010469847F2E7BE
:102D7000284601AA072198474FF0FF3695E700BF84
:102D8000ECAE00000CB10000ED2B0000D1080000FB
:102D9000F8B5044615460E460846022104F0FEFD2D
:102DA0002846022104F0FAFD984A994B52F8361051
:102DB000012001F500772760207252F835206072FB
:102DC00002F5007700206760E060013BFDD191F8DB
:102DD000003292F8002203F00103D20744BF43F00F
:102DE0000203DBB2A3723B2E00F20386DFE816F08B
:102DF000F405EA05E005D605CC05C205B805AE0523
:102E0000A4059A05900586057C05720568055E0592
:102E100054054A05400536052C05220518050E0502
:102E20000405FA04F004E604DC04D204C804BE0479
:102E3000B304A8049D04920487047C0428041E049F
:102E400014040A040004F603EC03E203D803CE03DF
:102E5000C403BA03B003A6039C03920388037E0352
:102E600074036A0360033C006A4B6B49C3F8EC408F
:102E700004223B2004F004FD012323743B2D00F2C7
:102E8000B585DFE815F00B030103F702ED02E3025D
:102E9000D902CF02C502BB02B102A7029D02930272
:102EA00089027F02310227021D0213020902FF017B
:102EB000F501EB01E101D701CD01C301B901AF017A
:102EC000A5019B01910186017B01700165015A01F9
:102ED0004F01440139012E01230118010D010201A6
:102EE000F700EC00E100B800AD00A20097008C00F4
:102EF000810076006B00600055004A003C00454BA5
:102F00004549C3F8EC4004223B2004F0B9FC237C83
:102F10000122134423742046F8BD3E4B3F49C3F8B9
:102F2000E84004223A2004F0ABFC237C0122F0E7C5
:102F3000384B3B49C3F8E4400422392004F0A0FC9C
:102F4000237C0122E5E7334B3649C3F8E0400422F5
:102F5000382004F095FC237C0122DAE72D4B32491E
:102F6000C3F8DC400422372004F08AFC237C0122D1
:102F7000CFE7284B2D49C3F8D8400422362004F06F
:102F80007FFC237C0122C4E7224B2949C3F8D440AB
:102F90000422352004F074FC237C0122B9E71D4B88
:102FA0002449C3F8D0400422342004F069FC237C77
:102FB0000122AEE7174B2049C3F8CC40042233204E
:102FC00004F05EFC237C0122A3E7124B1B49C3F8EB
:102FD000C8400422322004F053FC237C012298E7ED
:102FE0000C4B1749C3F8C4400422312004F048FCBC
:102FF000237C01228DE7074B1249C3F8C04004220D
:10300000302004F03DFC237C012282E7F4B1000073
:1030100080380100881DFF1F51130000E1190000D6
:1030200055190000C91800003D180000B117000034
:1030300025170000991600000D16000081150000EC
:10304000F514000069140000AC4BAD49C3F8BC4056
:1030500004222F2004F014FC237C012259E7A74B03
:10306000A849C3F8B84004222E2004F009FC237CB0
:1030700001224EE7A14BA449C3F8B44004222D20FD
:1030800004F0FEFB237C012243E79C4B9F49C3F8DD
:10309000B04004222C2004F0F3FB237C012238E70B
:1030A000964B9B49C3F8AC4004222B2004F0E8FB6C
:1030B000237C01222DE7914B9649C3F8A8400422B6
:1030C0002A2004F0DDFB237C012222E78B4B92496E
:1030D000C3F8A4400422292004F0D2FB237C01225F
:1030E00017E7864B8D49C3F8A0400422282004F03E
:1030F000C7FB237C01220CE7804B8949C3F89C4025
:103100000422272004F0BCFB237C012201E77B4B37
:103110008449C3F898400422262004F0B1FB237CA4
:103120000122F6E6754B8049C3F89440042225201D
:1031300004F0A6FB237C0122EBE6704B7B49C3F82D
:1031400090400422242004F09BFB237C0122E0E633
:103150006A4B7749C3F88C400422232004F090FB8B
:10316000237C0122D5E6654B7249C3F888400422CE
:10317000222004F085FB237C0122CAE65F4B6E49C6
:10318000C3F884400422212004F07AFB237C01222E
:10319000BFE65A4B6949C3F880400422202004F05E
:1031A0006FFB237C0122B4E6544B6549DC670422A3
:1031B0001F2004F065FB237C0122AAE64F4B6149E6
:1031C0009C6704221E2004F05BFB237C0122A0E606
:1031D0004A4B5D495C6704221D2004F051FB237CAF
:1031E000012296E6454B59491C6704221C2004F035
:1031F00047FB237C01228CE6404B5549DC660422C8
:103200001B2004F03DFB237C012282E63B4B51490D
:103210009C6604221A2004F033FB237C012278E60A
:10322000364B4D495C660422192004F029FB237CAF
:1032300001226EE6314B49491C660422182004F035
:103240001FFB237C012264E62C4B4549DC650422EC
:10325000172004F015FB237C01225AE6274B414935
:103260009C650422162004F00BFB237C012250E60F
:10327000224B3D495C650422152004F001FB237CB0
:10328000012246E61D4B39491C650422142004F036
:10329000F7FA237C01223CE6184B3549DC64042212
:1032A000132004F0EDFA237C012232E6134B31495E
:1032B0009C640422122004F0E3FA237C012228E615
:1032C0000E4B2D495C640422112004F0D9FA237CB2
:1032D00001221EE6094B29491C640422102004F037
:1032E000CFFA237C012214E6044B2549DC63042237
:1032F0000F2004F0C5FA237C01220AE6881DFF1F77
:10330000DD130000612B0000D52A0000492A0000CF
:10331000BD29000031290000A5280000192800005F
:103320008D2700000127000075260000E925000018
:103330005D250000D124000045240000B9230000D1
:103340002D230000A1220000152200008921000089
:10335000FD20000071200000E51F0000591F000043
:10336000CD1E0000411E0000B51D0000291D0000FB
:103370009D1C0000111C0000851B0000F91A0000B4
:103380006D1A0000B34BB4499C6304220E2004F074
:1033900077FA237C0122BCE5AE4BB0495C63042282
:1033A0000D2004F06DFA237C0122B2E5A94BAC4953
:1033B0001C6304220C2004F063FA237C0122A8E59C
:1033C000A44BA849DC6204220B2004F059FA237CA8
:1033D00001229EE59F4BA4499C6204220A2004F02E
:1033E0004FFA237C012294E59A4BA0495C620422A7
:1033F000092004F045FA237C01228AE5954B9C497B
:103400001C620422082004F03BFA237C012280E5A0
:10341000904B9849DC610422072004F031FA237CA8
:10342000012276E58B4B94499C610422062004F02E
:1034300027FA237C01226CE5864B90495C610422CB
:10344000052004F01DFA237C012262E5814B8C49A2
:103450001C610422104604F013FA237C012258E573
:103460007C4B8849DC600422032004F009FA237CA9
:1034700001224EE5774B84499C600422022004F02F
:10348000FFF9237C012244E5724B80495C600422F1
:10349000012004F0F5F9237C01223AE56D4B7C49CB
:1034A0001C600422002004F0EBF9237C012230E5AB
:1034B000684B7849C3F8E84004223A2004F0E0F968
:1034C0000123DAE4634B7449C3F8E4400422392051
:1034D00004F0D6F90123D0E45E4B7049C3F8E04014
:1034E0000422382004F0CCF90123C6E4594B6C497E
:1034F000C3F8DC400422372004F0C2F90123BCE405
:10350000544B6849C3F8D8400422362004F0B8F977
:103510000123B2E44F4B6449C3F8D4400422352060
:1035200004F0AEF90123A8E44A4B6049C3F8D04047
:103530000422342004F0A4F901239EE4454B5C49A5
:10354000C3F8CC400422332004F09AF9012394E418
:10355000404B5849C3F8C8400422322004F090F987
:1035600001238AE43B4B5449C3F8C4400422312070
:1035700004F086F9012380E4364B5049C3F8C0407B
:103580000422302004F07CF9012376E4314B4C49CD
:10359000C3F8BC4004222F2004F072F901236CE42C
:1035A0002C4B4849C3F8B84004222E2004F068F997
:1035B000012362E4274B4449C3F8B44004222D2080
:1035C00004F05EF9012358E4224B4049C3F8B040AF
:1035D00004222C2004F054F901234EE41D4B3C49F5
:1035E000C3F8AC4004222B2004F04AF9012344E440
:1035F000184B3849C3F8A84004222A2004F040F9A7
:1036000001233AE4134B3449C3F8A440042229208F
:1036100004F036F9012330E40E4B3049C3F8A040E2
:103620000422282004F02CF9012326E4094B2C491C
:10363000C3F89C400422272004F022F901231CE453
:10364000044B2849C3F898400422262004F018F9B6
:10365000012312E4881DFF1FC5120000391200006B
:10366000AD110000211100009510000009100000AC
:103670007D0F0000F10E0000650E0000D90D000066
:103680004D0D0000C10C0000350C0000A90B00001E
:103690001D0B0000E119000055190000C9180000B9
:1036A0003D180000B1170000251700009916000012
:1036B0000D16000081150000F514000069140000CB
:1036C000DD130000612B0000D52A0000492A00000C
:1036D000BD29000031290000A5280000192800009C
:1036E0008D27000001270000C34BC449C3F8944054
:1036F0000422252004F0C4F80123FFF7BEBBBE4B13
:10370000BF49C3F890400422242004F0B9F80123F3
:10371000FFF7B3BBB84BBB49C3F88C40042223204E
:1037200004F0AEF80123FFF7A8BBB34BB649C3F8CA
:1037300088400422222004F0A3F80123FFF79DBB58
:10374000AD4BB249C3F884400422212004F098F81C
:103750000123FFF792BBA84BAD49C3F88040042278
:10376000202004F08DF80123FFF787BBA24BA94965
:10377000DC6704221F2004F083F80123FFF77DBBE0
:103780009D4BA5499C6704221E2004F079F8012373
:10379000FFF773BB984BA1495C6704221D2004F01E
:1037A0006FF80123FFF769BB934B9D491C67042207
:1037B0001C2004F065F80123FFF75FBB8E4B99498D
:1037C000DC6604221B2004F05BF80123FFF755BBE5
:1037D000894B95499C6604221A2004F051F8012374
:1037E000FFF74BBB844B91495C660422192004F01F
:1037F00047F80123FFF741BB7F4B8D491C6604222C
:10380000182004F03DF80123FFF737BB7A4B8949B4
:10381000DC650422172004F033F80123FFF72DBBE9
:10382000754B85499C650422162004F029F8012374
:10383000FFF723BB704B81495C650422152004F01F
:103840001FF80123FFF719BB6B4B7D491C65042250
:10385000142004F015F80123FFF70FBB664B7949DC
:10386000DC640422132004F00BF80123FFF705BBEE
:10387000614B75499C640422122004F001F8012375
:10388000FFF7FBBA5C4B71495C640422112003F022
:10389000F7FF0123FFF7F1BA574B6D491C6404226F
:1038A000102003F0EDFF0123FFF7E7BA524B6949FF
:1038B000DC6304220F2003F0E3FF0123FFF7DDBAEE
:1038C0004D4B65499C6304220E2003F0D9FF012370
:1038D000FFF7D3BA484B61495C6304220D2003F023
:1038E000CFFF0123FFF7C9BA434B5D491C63042294
:1038F0000C2003F0C5FF0123FFF7BFBA3E4B594927
:10390000DC6204220B2003F0BBFF0123FFF7B5BAF2
:10391000394B55499C6204220A2003F0B1FF012370
:10392000FFF7ABBA344B51495C620422092003F023
:10393000A7FF0123FFF7A1BA2F4B4D491C620422B8
:10394000082003F09DFF0123FFF797BA2A4B49494E
:10395000DC610422072003F093FF0123FFF78DBAF7
:10396000254B45499C610422062003F089FF012371
:10397000FFF783BA204B41495C610422052003F024
:103980007FFF0123FFF779BA1B4B3D491C610422DD
:10399000104603F075FF0123FFF76FBA164B394944
:1039A000DC600422032003F06BFF0123FFF765BAFC
:1039B000114B35499C600422022003F061FF012372
:1039C000FFF75BBA0C4B31495C600422012003F025
:1039D00057FF0123FFF751BA074B2D491C60042202
:1039E000002003F04DFF0123FFF747BA0022FFF745
:1039F00090BA0023FFF741BA881DFF1F752600000B
:103A0000E92500005D250000D124000045240000C8
:103A1000B92300002D230000A12200001522000080
:103A200089210000FD20000071200000E51F00003A
:103A3000591F0000CD1E0000411E0000B51D0000F2
:103A4000291D00009D1C0000111C0000851B0000AA
:103A5000F91A00006D1A0000C512000039120000AA
:103A6000AD110000211100009510000009100000A8
:103A70007D0F0000F10E0000650E0000D90D000062
:103A80004D0D0000C10C0000350C0000A90B00001A
:103A90001D0B000010B4224C00234FF4E13104F65A
:103AA0001402A160C4F840381146C4F84438C4F880
:103AB0004C38C4F8483851F8040FA0B10133052B35
:103AC000F9D11849002351F8040FA8B10133052B8F
:103AD000F9D1002352F8041FB9B10133052BF9D1F4
:103AE0005DF8044B7047104903F20620693344F82F
:103AF00020108B60CC60E4E70C4903F206206933A8
:103B000044F820108B60CC60E3E7094A03F20621F9
:103B1000693344F82120D46093605DF8044B70470A
:103B20005814FF1F6C1CFF1F701DFF1F101DFF1F6F
:103B3000A813FF1F334B3449344A35482DE9F0416F
:103B40001F68CD68D7712C68324B2668324C1B68D1
:103B5000007889689380A64290714DD1632903DD76
:103B600095F85428002A45D0C3F307224FF0FF0EE2
:103B7000FE2685F81F340424FB2385F8202485F8CD
:103B800021040022C8B241F3072185F81C3485F8CE
:103B90001E1485F8227485F818E485F8196485F8F0
:103BA0001A4485F81B2485F81D0405F21D4305F20F
:103BB000224101E013F8010F99420244FAD1D243A5
:103BC000164E85F8232405F2174405F2234703E037
:103BD00004F0C8FFA7420BD06A6814F8011F1368ED
:103BE0001B68B3420846F3D010469847A742F3D16A
:103BF000BDE8F081BDE8F08128463346BDE8F041DC
:103C0000184700BF281DFF1FA813FF1F0013FF1F29
:103C1000441DFF1F0813FF1FED2B0000D1080000FB
:103C20002DE9F041484B494C49484A494A4A2678CF
:103C30000578DC680878494F494956739573D07305
:103C4000D1ED007A97ED007A4649276891F800E0B7
:103C50003F689968444B82F80CE0F8EEE77AB8EEDA
:103C6000C77A9F42C2ED017A82ED027A66D163295A
:103C700003DD94F85438002B5ED017EE902A17EE2F
:103C8000103A170A84F8286484F82954160C150E83
:103C900084F82A04180E4FEA132C84F827E484F8D9
:103CA0001F244FEA134E84F8207484F82164FF2700
:103CB00084F82254FE2684F823340C25F3230022B2
:103CC00084F82604C8B241F3072184F81C3484F830
:103CD0001E1484F824C484F825E484F8187484F845
:103CE000196484F81A5484F81B2484F81D0404F21F
:103CF0001D4304F22A4101E013F8010F99420244E6
:103D0000FAD1D243194E84F82B2404F2174504F259
:103D10002B4703E004F026FFAF420BD0626815F892
:103D2000011F13681B68B3420846F3D0104698473A
:103D3000AF42F3D1BDE8F081BDE8F08120463B46BB
:103D4000BDE8F041184700BF101DFF1F461DFF1FB3
:103D5000A413FF1F7413FF1FE81CFF1FBC13FF1FDA
:103D60000C1DFF1FFC12FF1FED2B0000D1080000EF
:103D7000F0B52DED048BC04B1A7C012A85B040F2C2
:103D8000078172B6D96862B6BC4802F0D1FCBC4B60
:103D90001A7C012A40F2368172B6D96862B6B948F7
:103DA00002F0C6FCB84B1A7C012A40F2B78072B60A
:103DB000D96862B6B54802F0BBFCB54B1A7C012A43
:103DC00040F2748172B6D96862B6B248B24F02F05E
:103DD000AFFCAA4802F0E6FCAA48B0EE408A02F026
:103DE000E1FCAA48F0EE408A02F0DCFCA948B0EE03
:103DF000409A02F0D7FCB0EE491AF0EE680AF0EEF5
:103E0000401AA648B0EE480A02F0D2FBA449A54ADF
:103E1000CC688DED010A266889683668CDED020A06
:103E2000BE4210EE105A10EE900A11EE103A8DEDCF
:103E3000031A82ED010AC2ED020A82ED031A65D16E
:103E4000632903DD94F85428002A5BD02E0A2A0C3B
:103E50004FEA156E070A84F81F5484F823041D0CDA
:103E600084F8206484F82124060C1A0A000E84F8D1
:103E7000273484F822E41B0E84F824744FF0FF0EDC
:103E800084F82564FE2784F826040C26C8B284F83A
:103E9000282441F30721002284F82954F32584F8CB
:103EA0002A3484F81E1484F818E484F8197484F809
:103EB0001A6484F81B2484F81C5484F81D0404F24A
:103EC0001D4304F22A4101E013F8010F9942024414
:103ED000FAD1D243744E84F82B2404F2174504F22D
:103EE0002B4703E004F03EFEAF420BD0626815F8AA
:103EF000011F13681B68B3420846F3D01046984769
:103F0000AF42F3D105B0BDEC048BF0BD2046334683
:103F100005B0BDEC048BBDE8F040184772B61A68D6
:103F2000586811780478587A1A7A044201EA020132
:103F300000F0F4809A7A02F0030209B142F0040220
:103F400042F008029110013A99720D2A3FF630AF03
:103F500001A151F822F000BFBB410000B3410000B5
:103F6000AB410000B3410000B13D0000A34100009F
:103F7000BB410000BB410000A3410000B13D000077
:103F8000B3410000AB410000B3410000BB41000061
:103F900072B61A68586811780478587A1A7A044206
:103FA00001EA020100F0CC809A7A02F0030209B122
:103FB00042F0040242F008029110013A99720D2A6F
:103FC0003FF6E0AE01A151F822F000BF9B41000096
:103FD000934100008B41000093410000853D0000AB
:103FE000834100009B4100009B4100008341000091
:103FF000853D0000934100008B410000934100008B
:104000009B41000072B61A68586811780478587A93
:104010001A7A044201EA020100F089809A7A02F0D9
:10402000030209B142F0040242F008029110013A81
:1040300099720D2A3FF6B1AE01A151F822F000BFEE
:104040007B410000734100006B41000073410000A0
:104050009B3D0000634100007B4100007B4100006C
:10406000634100009B3D0000734100006B41000074
:10407000734100007B410000301DFF1FD813FF1F5C
:104080001813FF1FF813FF1FC413FF1F1814FF1F7F
:10409000481DFF1F3814FF1FED2B00003013FF1FBA
:1040A000701DFF1F5C1DFF1FD108000072B61A684B
:1040B000586811780478587A1A7A044201EA0201A1
:1040C00047D09A7A02F00302002940F08A8042F039
:1040D00008029110013A99720D2A3FF674AE01A1BF
:1040E00051F822F0DB410000D3410000CB41000039
:1040F000D3410000C73D0000C3410000DB41000088
:10410000DB410000C3410000C73D0000D341000077
:10411000CB410000D3410000DB4100009A7A02F05D
:10412000030200293FF40EAF42F004020AE79A7A34
:1041300002F0030200293FF479AF42F0040275E770
:104140009A7A02F0030200293FF436AF42F00402EB
:1041500032E79A7A02F003020029BAD042F0040250
:10416000B7E7D9680239D96018E6D9680231D96051
:1041700014E6D9680139D96010E6D9680131D960EF
:104180000CE6D9680239D960FDE5D9680231D960F9
:10419000F9E5D9680139D960F5E5D9680131D96007
:1041A000F1E5D9680239D96003E6D9680231D960EE
:1041B000FFE5D9680139D960FBE5D9680131D960DB
:1041C000F7E5D9680239D960FEE5D9680231D960CE
:1041D000FAE5D9680139D960F6E5D9680131D960C5
:1041E000F2E542F0040272E7F0B40C4B0C480824EC
:1041F0004FF4C87260276D264E25DC711A602024AA
:1042000000221F725E725D739C721C73DA729A7365
:10421000DA731946F0BC03F00DB800BF8413FF1F1A
:10422000F01EFF1FF8B50F4B0F4808244FF4C8715C
:104230006022DC7119601A72194600226D2710265F
:1042400020254E245F729E721D735C73DA729A731E
:10425000DA7302F0EFFF0D210448BDE8F84002F0E8
:10426000CDBB00BF8413FF1FF01EFF1FB01EFF1F3A
:104270002DE9F04FCB4C94F8543893B0002B40F01C
:10428000B082DFF83C83DFF83C93DFF83CA3A34621
:10429000D8F800300893089FD4F85C3842F6F8222A
:1042A000FB1A934284BF00238BF85438D4F840386B
:1042B00033B1DBF860389F4284BF0023CBF840382D
:1042C000606803685B694B4540F0B28004F060FBB6
:1042D0000028C0F2B180D4F85038D4F84028034404
:1042E000072AC4F8503800F00181002A61D1FF2864
:1042F00000F01081D8F800300B930B9BDB1B052BD3
:10430000DED9A84B83F85428FFF78CFF0A2003F06E
:104310004BFB94F85438002BBAD0A34EA34D0FCECC
:104320000FC596E8030045F8040B2B46012223F83D
:104330001B19A8184FF0160C4FF0FF0EFE271B2676
:1043400084F81F24E42500220721C4F820C484F83F
:1043500018E484F8197484F81A6484F81B2484F827
:104360001E2484F81C5484F81D1401E013F8011F66
:1043700098420A44FAD18E4DD24384F83A2405F18A
:104380002206FF2105E004F0EDFBB5420BD015F845
:10439000011F626813681B6853450846F3D0104636
:1043A0009847B542F3D1012003F0FEFA13B0BDE8FF
:1043B000F08F012A00F0B680022A00F01D81032A46
:1043C00000F02581042A00F02C81052A00F03881B4
:1043D000062A00F03D81082A7FF472AF754A1A4020
:1043E00000239A42C4F84038C0F24681FF2A7FF485
:1043F00067AFD4F84838002B00F030820A2B00F069
:10440000F381062B00F041810B2B00F03A810BEB7E
:104410008303D3F89C0600283FF452AF0368664933
:104420001B689847606803685B694B453FF44EAF73
:1044300098470028BFF64FAF94F85438002B3FF44C
:1044400063AFDBF8583840F6C412FB1A93427FF68C
:104450005BAFFF21FE25594B8BF818140821002271
:104460008BF819548BF81A14F7250A2103F1090067
:104470008BF81F248BF820248BF821248BF822241E
:104480008BF823248BF824248BF825248BF82624FE
:104490008BF81B248BF81E248BF81C548BF81D14EE
:1044A00001E013F8011F83420A44FAD1404DD24380
:1044B00084F8272405F10F06FF2105E004F052FBE4
:1044C000AE420BD015F8011F626813681B68534594
:1044D0000846F3D010469847AE42F3D1D8F80030E2
:1044E0000793079BC4F85878E3600DE7DBF84C2886
:1044F000DBF844380BEB0201013B01320876CBF8C4
:104500004C28CBF84438002B7FF4DAAE0823C4F8EB
:104510004038D5E6012207F11403CBF84028CBF848
:104520006038CDE6FE2800F087809BF854280023F1
:10453000CBF84038002A7FF4C3AEFF21FE251F4B85
:104540008BF8181408218BF819548BF81A14F725D6
:104550000A218BF81F248BF820248BF821248BF858
:1045600022248BF823248BF824248BF825248BF821
:1045700026248BF81B248BF81E2403F109008BF8EA
:104580001C548BF81D1401E013F8011F83420A44E8
:10459000FAD1074DD24384F8272405F10F06FF21F5
:1045A0001AE000BF5814FF1F78B100007C18FF1FED
:1045B0007018FF1FFF0000807014FF1F7518FF1F89
:1045C0009420FF1F21060000D108000004F0CAFA61
:1045D000B5420BD015F8011F626813681B6853457C
:1045E0000846F3D010469847B542F3D1D8F80030CA
:1045F0000A930A9BE36063E600220323CBF8440896
:10460000CBF85008CBF84C28CBF8403858E6DBF80C
:104610004438042203EB0020CBF84408CBF84028B0
:104620004EE6A94A1A40002A21DBFF2A0CBF0523C7
:104630000023C4F8403843E60223CBF840383FE675
:104640000623CBF84808CBF85008CBF8403837E6BB
:10465000DBF84838DBF8442803EB00230721CBF8CC
:104660004838CBF84018002A3FF450AF28E6013A0A
:1046700062F0FF020132D8E7013A62F0FF02013234
:10468000B4E600238BF854381AE69BF818509BF8D0
:104690006C38AB4206D2A900DBF8740805F0DEFFE7
:1046A000CBF8740884F86C58002D00F0C582874A56
:1046B000042502F507660021937F92F81DE0107F24
:1046C0001B0443EA0E2392F81FE0034343EA0E6300
:1046D000C4F87038D4F87438306843F821000131D8
:1046E00094F86C38C9B28B4205F1040502F104025A
:1046F000E2D82E1D2B463546234494F878281B7E9D
:104700009A4208D29900DBF88008009305F0A6FFD2
:10471000009BCBF8800884F8783803B36C4E0BEB21
:10472000050300219A7E93F819E0187E120442EAEC
:104730000E2293F81BE0024342EA0E623260D4F884
:104740008028306842F82100013194F87828C9B2F5
:104750008A4205F1040503F10403E3D82E462644FA
:1047600094F88438367EB34206D2B100DBF88C0868
:1047700005F074FFCBF88C082B1D84F8846866B3B1
:1047800011AA544E00920021534AD058009A10604A
:10479000119A181D024490420AD21B335B4486468C
:1047A0000EF1010E93F801C003F801CB9645F7D343
:1047B000494DA318013828444FF00005DD75D4F8A1
:1047C0008C38C4F88808306843F82100013194F827
:1047D0008408C9B288421346D6D8012384F86438C5
:1047E0006EE5DFF80CA198E5D8F800300E930E9B2B
:1047F000DBF80C203948D8F8001010919B1ADBF830
:104800001C10374EDFF8ECC0DDF840E0DBF8182074
:10481000A0FB0305AD094FF47A700E4400FB15337D
:104820000CFB03632D4E0093A6FB0E362D49009B17
:10483000B609013A00FB16E02A440CFB1033961B24
:10484000081FCBF81430CBF8106001F077FED8F8D1
:1048500000300F930F9BCBF85C3831E52248A0F273
:104860002646FE25082100F8073C00F8063C86F89D
:10487000195486F81A14F7250A2186F8182486F8A0
:10488000213486F8223486F8233486F8243486F8D6
:10489000253486F8263486F81B3486F81E34A0F1B9
:1048A000090286F81C5486F81D1401E012F8011F55
:1048B00090420B44FAD10D4DDB4384F8273405F1C7
:1048C0000F06FF211EE000BFFF0000805814FF1FED
:1048D000D41CFF1FE01CFF1F7014FF1FD34D62107C
:1048E00000CA9A3B6C14FF1F7E18FF1F7018FF1F31
:1048F000D108000040420F0004F034F9B5420BD05B
:1049000015F8011F626813681B6853450846F3D009
:1049100010469847B542F3D1D8F800300993C84BF8
:10492000CDF808A01A46099BE360134614330093A0
:10493000049792465AF8043F002B00F0AB80586869
:104940009E6802681D6893689847DAF80030074649
:1049500058680368DB689847DAF8003001901B69F3
:104960000393632B04DD94F85438002B00F09280FD
:10497000C6F30723284684F8203484F81F6406F021
:104980007FF812AB064643F8180D1868AD4B324657
:1049900029461860181D851F02F02AFE384606F0C9
:1049A0006FF812AAB11D42F8140D03460A361068BA
:1049B00068501A463946A819059302F019FE019865
:1049C00006F05EF812AA059B42F8040D33441E1D42
:1049D00007461068E8503A46A819019902F008FE07
:1049E000B9190A1D5FFA82FE2144C2F3072C0EEBAF
:1049F0000C000426039F81F8206492B20023C04378
:104A000002F21E4681F81F3481F8213481F82234E5
:104A1000F9B284F81C0484F81AE4FE2047F307274F
:104A200004EB060E4FF0FF3684F81864023D84F85C
:104A30001BC484F8190484F81D1484F81E740E46EF
:104A400001E015F8016F75453344FAD1D11D0832E4
:104A500014FA81F192B2DB43B2F5806F81F8183419
:104A600000F2E680B2B102F21742774E0BEB02057C
:104A700003E004F077F8B5420CD06268029813683E
:104A800016F8011F1B6883420846F2D0104698476B
:104A9000B542F2D1009B9A457FF44CAFDDF808A0F7
:104AA000049FCDF804A003979A465AF8040F0028F3
:104AB00000F0AA8090E848009B6885689847074600
:104AC000DAF800000368DB6898470090DAF8000025
:104AD00003685B6898476328029004DD94F85438B3
:104AE000002B00F09180C6F30723284684F8203479
:104AF00084F81F6405F0C4FF12AB064643F8180D96
:104B00001868504B324629461860181D851F02F060
:104B10006FFD384605F0B4FF12AAB11D42F8140D1E
:104B200003460A36106868501A463946A819049395
:104B300002F05EFD009805F0A3FF12AA049B42F864
:104B4000040D33441E1D07461068E8503A46A81964
:104B5000009902F04DFDB9190A1D5FFA82FE214449
:104B6000C2F3072C0EEB0C000426029F81F8206490
:104B700092B20023C04302F21E4681F81F3481F82E
:104B8000213481F82234F9B284F81C0484F81AE440
:104B9000FE2047F3072704EB060E4FF0FF3684F89C
:104BA0001864023D84F81BC484F8190484F81D14A9
:104BB00084F81E740E4601E015F8016FAE453344CB
:104BC000FAD1D11D083214FA81F192B2DB43B2F569
:104BD000806F81F8183427D8B2B102F217421A4E0A
:104BE0000BEB020503E003F0BDFFB5420CD0626899
:104BF0000198136816F8011F1B6883420846F2D01B
:104C000010469847B542F2D1104B9A457FF44DAF0C
:104C1000039FDDF804A0C4F858780123C4F85C7839
:104C200084F85438FFF770BB0948FBF701FFEBE746
:104C30000748FBF7FDFE2DE70826354604235BE514
:104C40006C1CFF1F7918FF1F6F18FF1F941CFF1F9C
:104C50005814FF1F00B583B000230093104A114978
:104C6000114802F0EFF8FEF715FF642002F09CFEF9
:104C7000FFF7BAFA642002F097FEFFF7B5FA642056
:104C800002F092FEFFF7B0FA642002F08DFEFFF70B
:104C9000EFFA4FF4FA7003B05DF804EB02F084BE53
:104CA0008C20FF1F20A10700F01EFF1F2DE9F84FE9
:104CB000664D2C4630E0B3F58E6F72D040F27142F3
:104CC000934240F08780624A237B62491370072B2E
:104CD000E07ADFF8D081DFF8D0E15F4E5F4B94F8E7
:104CE000089094F809C0A77A08700CBF012200222E
:104CF0005B4888F800908EF800C037701A705949E8
:104D0000594F4B780A788E7858490078387002EB02
:104D1000430303EB86030B60554802F04DF900286E
:104D200000F087804949524802F07CF92B68B3F5BE
:104D3000487FC0D1237ADFF874A1DFF874914D4920
:104D4000DFF870C1627A4C4E4C48DFF86C81DFF8B6
:104D50006CE14B4F03F0010B8AF800B0C3F3400A3B
:104D600089F800A0C3F3800981F80090C3F3C0095B
:104D70008CF800904349C3F3001CC3F3401986F834
:104D800000C0C3F3801C02F00106DB09C2F340023D
:104D9000067088F800908EF800C03B700A703048AA
:104DA000ADE794F80BC0A27A94F80DE0237B364F60
:104DB000364EDFF80C813649607A94F80890086026
:104DC00002EB0C2203EB0E23C8F800903A6033602C
:104DD000234894E740F28B12934235D1A07B2D49B2
:104DE000002340FA03F2013302F00102082B01F81C
:104DF000012FF6D1E87B2849002340FA03F2013362
:104E000002F00102082B01F8012FF6D114482349C2
:104E100083784278C67802EB430303EB8603022BC8
:104E20000B607FF76CAFEB7A2BB91D4BAA7A1A6037
:104E300065E7BDE8F88FFF2B7FF461AFAB7A184AC6
:104E4000A3F5807313605AE7054858E7F81CFF1F65
:104E50009C13FF1F7413FF1FA413FF1FFC12FF1FDF
:104E60000C13FF1F7813FF1F441DFF1F281DFF1F7A
:104E7000F01EFF1FC013FF1F841DFF1F6C1DFF1FAF
:104E80008113FF1F451DFF1FBC13FF1F1413FF1FBE
:104E90007013FF1F7713FF1F0B13FF1FA013FF1FBC
:104EA0000813FF1F241DFF1F461DFF1F2C13FF1F8C
:104EB0002C1DFF1F9D13FF1F8013FF1F081DFF1FC9
:104EC0000C1DFF1F2DE9F04FC64FC74C95B0FFF7E3
:104ED000EDFE3B680493049B22689B1A092B00F2A9
:104EE000A8813B68C14C0693069B2268BD4D9B1A66
:104EF000042B05D9FEF73CFF2B680793079B236023
:104F00003B68BB4C0893DDF820B0D4F85C3842F61F
:104F1000F822C3EB0B03934284BF002384F8543878
:104F2000D4F84038B24A33B1D2F860389B4584BFD8
:104F30000023C2F84038AF4EAD4D606803685B692E
:104F4000B3426ED103F024FD00286DDBD4F8503855
:104F5000D4F84028DFF898E20344072AC4F8503810
:104F600049D072B9FF2800F0BC803B680B930B9BC3
:104F7000CBEB0303052BE0D98EF8542815B0BDE820
:104F8000F08F012A00F0B580022A00F00681032A82
:104F900000F00E81042A00F01581052A00F032810C
:104FA000062A00F03781082AC7D1934A1A40002305
:104FB0009A42C4F84038C0F24C81FF2ABDD1D4F8DF
:104FC0004838DFF82C92002B00F044820A2B00F0C6
:104FD0000C82062B00F046810B2B00F03F8105EB85
:104FE0008303D3F89C060028A7D0036809F11801B1
:104FF0001B689847A1E7D5F84C28D5F84438A9187C
:10500000013B01320876C5F84C28C5F84438002B1E
:1050100093D160680823C4F8403803685B69B342E1
:1050200090D09847002891DA94F854387048002BB3
:10503000A4D0D0F8583840F6C412C3EB0B03934207
:105040009CD9FF23FE21002280F8183480F819141F
:10505000F72308250A2180F81C3480F81F2480F8E3
:10506000202480F8212480F8222480F8232480F84A
:10507000242480F8252480F8262480F81B2480F836
:105080001E2480F81A5480F81D1400F21D4300F20B
:10509000264001E013F8011F98420A44FAD1574E06
:1050A000574DD24384F8272406F10F08FF2005E06E
:1050B00003F058FD46450BD016F8010F62681368DF
:1050C0001B68AB420146F3D0104698474645F3D1E2
:1050D0003B681193119BC4F858B8E36015B0BDE864
:1050E000F08F01220BF11403C5F84028C5F8603891
:1050F00023E7FE2871D095F854280023C5F84038DE
:10510000002A7FF41AAFFF23FE21082085F8183407
:1051100085F81914F7230A2185F81C3485F81F2413
:105120000EF21D4385F8202485F8212485F82224D9
:1051300085F8232485F8242485F8252485F8262459
:1051400085F81B2485F81E2485F81A0485F81D149B
:105150000EF2264E01E013F8011F73450A44FAD1FE
:10516000DFF89890DFF89880D24384F8272409F17B
:105170000F0AFF2101E019F8011F626813681B681C
:105180004345084640F0698303F0ECFCCA45F2D180
:105190003B680A930A9BE360CFE600220323C5F82D
:1051A0004408C5F85008C5F84C28C5F84038C4E68E
:1051B000D5F84438042203EB0020C5F84408C5F8AC
:1051C0004028BAE60C4A1A40002A3DDBFF2A0CBFF1
:1051D00005230023C4F84038AFE60223C5F8403861
:1051E000ABE600BF9420FF1F9813FF1F9413FF1F0F
:1051F0005814FF1F21060000FF0000807018FF1FD9
:10520000D10800000623C5F84808C5F85008C5F8BD
:10521000403892E6D5F84838D5F8442803EB002307
:105220000721C5F84838C5F84018002A3FF4F1AE08
:1052300083E6FEF7F5FCFEF77DFCFEF7F3FF3B6827
:105240000593059B23604CE6013A62F0FF020132B0
:10525000BCE7013A62F0FF020132AEE6002385F8B6
:1052600054386AE695F8188095F86C38434507D2AB
:105270004FEA8801D5F8740805F0F0F9C5F874080C
:1052800084F86C88B8F1000F00F0E1829E494FF07D
:10529000040C01F507684FF0000E8B7F487F0A7FF2
:1052A0001B0443EA0023C87F134343EA0063C4F8A6
:1052B0007038D4F87438D8F8000043F82E000EF196
:1052C000010E94F86C385FFA8EFE73450CF1040CF5
:1052D00001F10401E1D80CF10409C846A44494F892
:1052E00078389CF818A0534507D24FEA8A01D5F8C0
:1052F000800805F0B3F9C5F8800884F878A8BAF1F9
:10530000000F28D0DFF8149205EB080C4FF0000EC8
:105310009CF81A309CF819109CF818201B0443EADA
:1053200001239CF81B10134343EA0163C9F80030C2
:10533000D4F88038D9F8000043F82E000EF1010EA1
:1053400094F878385FFA8EFE734508F104080CF182
:10535000040CDDD8C146A14494F8843899F818901B
:105360004B4507D24FEA8901D5F88C0805F076F94C
:10537000C5F88C0808F1040384F88498B9F1000F8B
:105380002FD0DFF89CE1002111AA0EF507688C46AA
:105390000192019A5EF803001060119A181D0244F0
:1053A00090420AD21B332B44814609F1010993F83C
:1053B00001A003F801AB9145F7D3A318013883F896
:1053C00017C07044D4F88C38C4F88808D8F80000A6
:1053D00043F82100013194F88408C9B28842134689
:1053E000D7D8012384F86438A7E53B680E930E9B59
:1053F000EA68396810914549E869DFF828C1DDF8A5
:1054000040809B1AA1FB031E4FEA9E1E4FF47A7147
:1054100084443F48AA6901FB1E3300FB03CC3B4B8D
:10542000A3FB083A4FEA9A1A013A01FB1A81724427
:1054300000FB11C3CAEB020209F1140109F11000CB
:105440006B612A6101F07AF83B680F930F9BC5F8F6
:105450005C3872E59A4609F21F4611AB019331465A
:1054600018462C4B11939046CDF848A0CDF84CA08F
:10547000FAF7FCFF5FFA80FEC0F307250EEB050389
:1054800082B2DB4389F81C3402F21E41FE200A235B
:1054900089F8188489F81EA489F81AE489F81B543D
:1054A000494489F8190489F81D3409F21D4901E0BD
:1054B00019F8013F89459A44FAD1D11D02F1080338
:1054C00014FA81F19BB26FEA0A0AB3F5806F81F892
:1054D00018A40D4828D84BB303F217430E4D00EB28
:1054E000030800F2174903E003F03CFBC1451DD05F
:1054F000626819F8011F13681B68AB420846F3D0B5
:1055000010469847F2E700BF5814FF1FD34D6210B2
:1055100040420F00BCAE0000D1080000D41CFF1FA9
:105520007014FF1F00CA9A3BFBF782FA3B6809938D
:10553000CB4F099BE36007F11403029357F8043F34
:10554000002B00F0B68058689D680268D3F800A070
:10555000936898473B68814658680368DB689847BA
:105560003B681B69632B804604DD94F85428002AAD
:1055700000F09F80C5F3072284F82024504684F869
:105580001F54039305F07CFA14AAB64B42F8200D81
:105590000546106818602A46181D514602F028F882
:1055A000484605F06DFA14AAA91D42F81C0D824662
:1055B0000A351068705052464946701902F018F8C2
:1055C000404605F05DFA019B1190554481461868EC
:1055D00070510435414670194A4602F009F809EB4A
:1055E0000500051DC5F307225FFA85FA20440AEB82
:1055F000020C039B00214FF0040E6FEA0C0CADB2BD
:1056000080F820E480F81F1480F8211480F8221418
:1056100005F21E4ED8B24FF0FF0884F81CC443F3C5
:1056200007234FF0FE0C84F81B2484F81AA48E4A3A
:1056300084F81884A64484F819C484F81D0484F8F6
:105640001E3401E012F8010F96450144FAD1EA1D1B
:1056500005F1080314FA82F29BB2C943B3F5806FD7
:1056600082F8181419D823B3DFF81092DFF81082EB
:1056700003F21743A9F21742D51803E003F072FAB8
:105680004D4516D0626819F8011F13681B68434521
:105690000846F3D010469847F2E7744A744B1192CB
:1056A00003218DF848107348019A13930721FDF7E1
:1056B0009DFA029B9F427FF441AF1F4657F8040FAB
:1056C000002800F0B78090E828009B68D0F808A078
:1056D0009847814638680368DB6898478046386891
:1056E00003685B6898476328034604DD94F85428F0
:1056F000002A00F09F80C5F3072284F8202450463A
:1057000084F81F54029305F0BBF914AA554B42F8D4
:10571000200D0546106818602A46181D514601F0F4
:1057200067FF484605F0ACF914AAA91D42F81C0D04
:1057300082460A351068705052464946701901F089
:1057400057FF404605F09CF9019B11905544814656
:10575000186870510435414670194A4601F048FFF7
:1057600009EB0500051DC5F307225FFA85FA204401
:105770000AEB020C029B00214FF0040E6FEA0C0CA6
:10578000ADB280F820E480F81F1480F8211480F86E
:10579000221405F21E4ED8B24FF0FF0884F81CC444
:1057A00043F307234FF0FE0C84F81B2484F81AA45B
:1057B0002D4A84F81884A64484F819C484F81D047A
:1057C00084F81E3401E012F8010F96450144FAD125
:1057D000EA1D05F1080314FA82F29BB2C943B3F53E
:1057E000806F82F8181419D823B3DFF89090DFF88F
:1057F000908003F21743A9F21742D51803E003F093
:10580000B1F94D4516D0626819F8011F13681B687D
:1058100043450846F3D010469847F2E7134A144B25
:10582000119203218DF848101248019A1393072111
:10583000FDF7DCF9104B9F427FF440AF0123C4F821
:1058400058B8C4F85CB884F85438FFF797BB4FF0E9
:105850000809C8464FF0040C40E51046984795E407
:105860006C1CFF1F7918FF1F7518FF1FECAE00009E
:105870000CB100005814FF1F941CFF1F6F18FF1F6E
:10588000D10800002DE9F04F91B0C24AC24B0A92F4
:105890000022044600F6140A00F62808ADF82C2071
:1058A0000F920C930D930E935AF8043F002B00F0C7
:1058B000C48058681D6801689A680C958B68ADF8BB
:1058C0002C209847DAF800300D9058680368DB68A0
:1058D00098472368DAF800100E904FF480621B6836
:1058E0000E690F92AD4A9342814640F09981632E32
:1058F00004DD94F85438002B00F09F80BDF82C3064
:105900000C9F84F81F341B0A84F82034384605F0B5
:10591000B7F810AB054643F82C0D1868C4F82104FD
:1059200039462A4604F2254001F062FEDDF834B023
:10593000584605F0A5F810AA114604F21F47AA1D03
:10594000069003460A3551F8280DB85002911A46C0
:1059500059467819019301F04BFE484605F090F83E
:1059600010AB1A46019B07901D441346834653F81B
:10597000240D78510435494678195A46AB440193B1
:1059800001F036FE0BF104005FFA80FCC0F3072E35
:1059900007EB0B020CEB0E050023ED434FF004095F
:1059A00080B207F80B3000F21E4182F8019093702C
:1059B000D370FF27F2B24FF0FE0946F3072684F8B2
:1059C0001C5404F21D4584F81E6484F81AC484F83B
:1059D0001BE4214484F8187484F8199484F81D2475
:1059E0002E4601E016F8012FB1421344FAD1C11D31
:1059F00000F1080214FA81F192B2DB43B2F5806F34
:105A000081F8183400F2148104F58366AAB1013AD2
:105A1000634F164404F2174503E003F0A3F8B542C0
:105A20000BD0626815F8011F13681B68BB4208465B
:105A3000F3D010469847B542F3D1C2457FF434AF56
:105A400004F63C03019358F8040F002800F0D580B9
:105A50008168036842680C91ADF82C209B689847D8
:105A6000D8F800300D901A681846D3689847D8F8CF
:105A7000003021680E901A680E6852684FF48061F9
:105A800018460F919047454B9E42054640F0BF8017
:105A9000632804DD94F85438002B00F0AE80BDF884
:105AA0002C300C9E84F81F341B0A84F820343046B6
:105AB00004F0E6FF10AB074643F82C0D1868C4F855
:105AC000210431463A4604F2254001F091FDDDF80B
:105AD00034B0584604F0D4FF0DF1400904F21F46DB
